:1000000010C01FC0A3C098C01CC01BC01AC019C01C
:1000100018C017C016C015C014C013C012C011C03C
:1000200010C011241FBECFE5D2E0DEBFCDBF20E05F
:10003000A0E6B0E001C01D92A136B207E1F7D8D02A
:100040003AC1DECF8FEF9FEF99BD88BD81E090E090
:100050009BBD8ABD08958230910508F4F3CF9C01C1
:1000600040E050E068E478EE81E090E002D1DA010F
:10007000C901B695A79597958795019799BD88BDB4
:10008000215031093BBD2ABD08954AB34C7F242F2E
:100090002160342F326082BF2ABB00006150710999
:1000A0003ABB0000C9F74ABB08954AB34C7F242FDE
:1000B0002160342F326082BF4ABB2ABB6150710974
:1000C0004ABB3ABBC9F74ABB0895D89AD9988AB3B4
:1000D00083608ABB85E88A95F1F7000085B7806464
:1000E00085BF8AB38C7F8ABB0895D09A81E087B997
:1000F000369A3699FECF80E287B985B78F7B85BF68
:1001000084B195B10895CF93DF93C82FD62FDDDF4B
:1001100060E27EE48C2FDD2311F0C7DF01C0B5DF84
:10012000DF91CF91E2CF61E087E0EDDF23E0880F40
:10013000991F2A95E1F78FCF1F920F920FB60F925A
:1001400011240F900FBE0F901F9018951F920F92C1
:100150000FB60F9211240F900FBE0F901F9018959D
:1001600089B3807591E0803509F490E020916000BA
:1001700081E08227909360008923089590E59BBBDE
:100180008FEA8ABB8CE088BB87E087BB80B78F7C17
:1001900080BF8FB58F7C8FBD16B880E18BBF92BBBF
:1001A00080E099B39075903539F4EFECF7E0319732
:1001B000F1F700C0000001C080E08F5F8A3088F353
:1001C00085B7877E806185BF85B7806285BF85B72B
:1001D000846885BF8B7F85BF889585B78F7D85BFF8
:1001E0001BBE8FE19EE40197F1F700C00000B8CF7D
:1001F00080E886BD16BC85B7846885BF7894C1E069
:1002000013E080E5F82E9FEAE92E2CE0D22E07E0DD
:1002100030E2C32E46E8B42E53E2A52E69E0962EB6
:1002200073E3872EEBE17E2E11B9FBBAEABAD8BA96
:1002300007BBDB9AC7B8B6B813B812BE06BF1CBF5F
:10024000A0BE93BE1DBC1CBCFDDE8FBC7EBCCC23FF
:1002500029F069DF85DF8823E1F308C0C8E9DAE324
:100260007FDF811103C05FDF2197D1F787DFC0E017
:10027000DBCFA1E21A2EAA1BBB1BFD010DC0AA1FDA
:10028000BB1FEE1FFF1FA217B307E407F50720F0FF
:10029000A21BB30BE40BF50B661F771F881F991F7A
:1002A0001A9469F760957095809590959B01AC01C3
:0A02B000BD01CF010895F894FFCFBF
:00000001FF
